:0400000007EF00F016
:100008002A827CED00F0F2EF00F00DEC01F0D5EC67
:1000180000F03A0E166E980E156E000E186EC80E89
:10002800176E420EE82EFED700D081A203D01F4AD9
:10003800202A1DD01F502010D8B419D02450D8A47D
:1000480003D02350D8B404D0000E246E000E07D07D
:100058001F50155C20501658D8B003D0010E236EDF
:1000680002D0010E246E000E206E000E1F6E24506A
:10007800D8B415D01D4A1E2A17501D182AE1185049
:100088001E18D8A426D02650285C27502958D8B046
:1000980003D0284A292A19D0000E246E16D02350DE
:1000A800D8B417D01D4A1E2A17501D1812E118502F
:1000B8001E18D8A40ED028502910D8B404D0280669
:1000C800D8A0290602D0000E236E000E1E6E000E68
:1000D8001D6E28C013F029C014F0131E141E134AF5
:1000E800142A26501324216E27501420226E99D7E3
:1000F8000600FACF01F0FBCF02F0E9CF03F0EACF18
:1001080004F0E1CF05F0E2CF06F0D9CF07F0DACF5F
:1001180008F0F3CF09F0F4CF0AF0F6CF0BF0F7CFE1
:100128000CF0F8CF0DF0F5CF0EF02AC00FF02BC071
:1001380010F02CC011F02DC012F0F2A208D08A9451
:1001480021C0D6FF22C0D7FFD58EF29204D0F2A4E8
:1001580002D08A84F29412C02DF011C02CF010C085
:100168002BF00FC02AF00EC0F5FF0DC0F8FF0CC031
:10017800F7FF0BC0F6FF0AC0F4FF09C0F3FF08C081
:10018800DAFF07C0D9FF06C0E2FF05C0E1FF04C0DF
:10019800EAFF03C0E9FF02C0FBFF01C0FAFF2A9291
:1001A8001100000E816E000E8A6E0F0EC16E9380D4
:1001B800938293948A948190D09EF28EF28CF288E6
:1001C800F292F19CF28AF294F184D58CD59AD59664
:1001D800D550F80B0509D56ED59E1200260EF66E81
:1001E800020EF76E000EF86E00EE26F010EE04F028
:1001F8000900F5CFEEFFE550E150FAE100EE19F005
:100208000D0EEE6AE806FDE12A902A92000109EF38
:1002180000F0030ED312D388D38AD38C1200FF00C8
:02022800FF00D5
:020000040020DA
:08000000FFFFFFFFFFFFFFFF00
:020000040030CA
:0E0000000009191EFF8180FF0FC00FE00F40A6
:00000001FF
